{
  "_format": "hh-sol-artifact-1",
  "contractName": "AQCT1155",
  "sourceName": "contracts/AQCT1155.sol",
  "abi": [
    {
      "inputs": [],
      "stateMutability": "nonpayable",
      "type": "constructor"
    },
    {
      "anonymous": false,
      "inputs": [
        {
          "indexed": true,
          "internalType": "address",
          "name": "account",
          "type": "address"
        },
        {
          "indexed": true,
          "internalType": "address",
          "name": "operator",
          "type": "address"
        },
        {
          "indexed": false,
          "internalType": "bool",
          "name": "approved",
          "type": "bool"
        }
      ],
      "name": "ApprovalForAll",
      "type": "event"
    },
    {
      "anonymous": false,
      "inputs": [
        {
          "indexed": true,
          "internalType": "address",
          "name": "account",
          "type": "address"
        },
        {
          "indexed": true,
          "internalType": "uint256",
          "name": "id",
          "type": "uint256"
        },
        {
          "indexed": true,
          "internalType": "uint256",
          "name": "amount",
          "type": "uint256"
        }
      ],
      "name": "Burned",
      "type": "event"
    },
    {
      "anonymous": false,
      "inputs": [
        {
          "indexed": true,
          "internalType": "address",
          "name": "account",
          "type": "address"
        },
        {
          "indexed": true,
          "internalType": "uint256",
          "name": "id",
          "type": "uint256"
        },
        {
          "indexed": true,
          "internalType": "uint256",
          "name": "amount",
          "type": "uint256"
        }
      ],
      "name": "Minted",
      "type": "event"
    },
    {
      "anonymous": false,
      "inputs": [
        {
          "indexed": true,
          "internalType": "address",
          "name": "previousOwner",
          "type": "address"
        },
        {
          "indexed": true,
          "internalType": "address",
          "name": "newOwner",
          "type": "address"
        }
      ],
      "name": "OwnershipTransferred",
      "type": "event"
    },
    {
      "anonymous": false,
      "inputs": [
        {
          "indexed": true,
          "internalType": "address",
          "name": "operator",
          "type": "address"
        },
        {
          "indexed": true,
          "internalType": "address",
          "name": "from",
          "type": "address"
        },
        {
          "indexed": true,
          "internalType": "address",
          "name": "to",
          "type": "address"
        },
        {
          "indexed": false,
          "internalType": "uint256[]",
          "name": "ids",
          "type": "uint256[]"
        },
        {
          "indexed": false,
          "internalType": "uint256[]",
          "name": "values",
          "type": "uint256[]"
        }
      ],
      "name": "TransferBatch",
      "type": "event"
    },
    {
      "anonymous": false,
      "inputs": [
        {
          "indexed": true,
          "internalType": "address",
          "name": "operator",
          "type": "address"
        },
        {
          "indexed": true,
          "internalType": "address",
          "name": "from",
          "type": "address"
        },
        {
          "indexed": true,
          "internalType": "address",
          "name": "to",
          "type": "address"
        },
        {
          "indexed": false,
          "internalType": "uint256",
          "name": "id",
          "type": "uint256"
        },
        {
          "indexed": false,
          "internalType": "uint256",
          "name": "value",
          "type": "uint256"
        }
      ],
      "name": "TransferSingle",
      "type": "event"
    },
    {
      "anonymous": false,
      "inputs": [
        {
          "indexed": false,
          "internalType": "string",
          "name": "value",
          "type": "string"
        },
        {
          "indexed": true,
          "internalType": "uint256",
          "name": "id",
          "type": "uint256"
        }
      ],
      "name": "URI",
      "type": "event"
    },
    {
      "inputs": [
        {
          "internalType": "uint256",
          "name": "id",
          "type": "uint256"
        },
        {
          "internalType": "uint256",
          "name": "amount",
          "type": "uint256"
        }
      ],
      "name": "add",
      "outputs": [],
      "stateMutability": "nonpayable",
      "type": "function"
    },
    {
      "inputs": [
        {
          "internalType": "address",
          "name": "account",
          "type": "address"
        },
        {
          "internalType": "uint256",
          "name": "id",
          "type": "uint256"
        }
      ],
      "name": "balanceOf",
      "outputs": [
        {
          "internalType": "uint256",
          "name": "",
          "type": "uint256"
        }
      ],
      "stateMutability": "view",
      "type": "function"
    },
    {
      "inputs": [
        {
          "internalType": "address[]",
          "name": "accounts",
          "type": "address[]"
        },
        {
          "internalType": "uint256[]",
          "name": "ids",
          "type": "uint256[]"
        }
      ],
      "name": "balanceOfBatch",
      "outputs": [
        {
          "internalType": "uint256[]",
          "name": "",
          "type": "uint256[]"
        }
      ],
      "stateMutability": "view",
      "type": "function"
    },
    {
      "inputs": [
        {
          "internalType": "uint256",
          "name": "id",
          "type": "uint256"
        },
        {
          "internalType": "uint256",
          "name": "amount",
          "type": "uint256"
        }
      ],
      "name": "burn",
      "outputs": [],
      "stateMutability": "nonpayable",
      "type": "function"
    },
    {
      "inputs": [
        {
          "internalType": "uint256",
          "name": "id",
          "type": "uint256"
        }
      ],
      "name": "exists",
      "outputs": [
        {
          "internalType": "bool",
          "name": "",
          "type": "bool"
        }
      ],
      "stateMutability": "view",
      "type": "function"
    },
    {
      "inputs": [
        {
          "internalType": "address",
          "name": "account",
          "type": "address"
        },
        {
          "internalType": "address",
          "name": "operator",
          "type": "address"
        }
      ],
      "name": "isApprovedForAll",
      "outputs": [
        {
          "internalType": "bool",
          "name": "",
          "type": "bool"
        }
      ],
      "stateMutability": "view",
      "type": "function"
    },
    {
      "inputs": [
        {
          "internalType": "string",
          "name": "tokenUri",
          "type": "string"
        },
        {
          "internalType": "uint256",
          "name": "amount",
          "type": "uint256"
        }
      ],
      "name": "mint",
      "outputs": [],
      "stateMutability": "nonpayable",
      "type": "function"
    },
    {
      "inputs": [],
      "name": "name",
      "outputs": [
        {
          "internalType": "string",
          "name": "",
          "type": "string"
        }
      ],
      "stateMutability": "view",
      "type": "function"
    },
    {
      "inputs": [],
      "name": "owner",
      "outputs": [
        {
          "internalType": "address",
          "name": "",
          "type": "address"
        }
      ],
      "stateMutability": "view",
      "type": "function"
    },
    {
      "inputs": [],
      "name": "renounceOwnership",
      "outputs": [],
      "stateMutability": "nonpayable",
      "type": "function"
    },
    {
      "inputs": [
        {
          "internalType": "address",
          "name": "from",
          "type": "address"
        },
        {
          "internalType": "address",
          "name": "to",
          "type": "address"
        },
        {
          "internalType": "uint256[]",
          "name": "ids",
          "type": "uint256[]"
        },
        {
          "internalType": "uint256[]",
          "name": "amounts",
          "type": "uint256[]"
        },
        {
          "internalType": "bytes",
          "name": "data",
          "type": "bytes"
        }
      ],
      "name": "safeBatchTransferFrom",
      "outputs": [],
      "stateMutability": "nonpayable",
      "type": "function"
    },
    {
      "inputs": [
        {
          "internalType": "address",
          "name": "from",
          "type": "address"
        },
        {
          "internalType": "address",
          "name": "to",
          "type": "address"
        },
        {
          "internalType": "uint256",
          "name": "id",
          "type": "uint256"
        },
        {
          "internalType": "uint256",
          "name": "amount",
          "type": "uint256"
        },
        {
          "internalType": "bytes",
          "name": "data",
          "type": "bytes"
        }
      ],
      "name": "safeTransferFrom",
      "outputs": [],
      "stateMutability": "nonpayable",
      "type": "function"
    },
    {
      "inputs": [
        {
          "internalType": "address",
          "name": "operator",
          "type": "address"
        },
        {
          "internalType": "bool",
          "name": "approved",
          "type": "bool"
        }
      ],
      "name": "setApprovalForAll",
      "outputs": [],
      "stateMutability": "nonpayable",
      "type": "function"
    },
    {
      "inputs": [
        {
          "internalType": "bytes4",
          "name": "interfaceId",
          "type": "bytes4"
        }
      ],
      "name": "supportsInterface",
      "outputs": [
        {
          "internalType": "bool",
          "name": "",
          "type": "bool"
        }
      ],
      "stateMutability": "view",
      "type": "function"
    },
    {
      "inputs": [
        {
          "internalType": "address",
          "name": "account",
          "type": "address"
        },
        {
          "internalType": "uint256",
          "name": "id",
          "type": "uint256"
        }
      ],
      "name": "token",
      "outputs": [
        {
          "components": [
            {
              "internalType": "uint256",
              "name": "tokenId",
              "type": "uint256"
            },
            {
              "internalType": "string",
              "name": "uri",
              "type": "string"
            },
            {
              "internalType": "address",
              "name": "owner",
              "type": "address"
            },
            {
              "internalType": "uint256",
              "name": "amount",
              "type": "uint256"
            }
          ],
          "internalType": "struct IAQCToken.AQCT",
          "name": "",
          "type": "tuple"
        }
      ],
      "stateMutability": "view",
      "type": "function"
    },
    {
      "inputs": [
        {
          "internalType": "address",
          "name": "account",
          "type": "address"
        }
      ],
      "name": "tokensOf",
      "outputs": [
        {
          "components": [
            {
              "internalType": "uint256",
              "name": "tokenId",
              "type": "uint256"
            },
            {
              "internalType": "string",
              "name": "uri",
              "type": "string"
            },
            {
              "internalType": "address",
              "name": "owner",
              "type": "address"
            },
            {
              "internalType": "uint256",
              "name": "amount",
              "type": "uint256"
            }
          ],
          "internalType": "struct IAQCToken.AQCT[]",
          "name": "tokens",
          "type": "tuple[]"
        }
      ],
      "stateMutability": "view",
      "type": "function"
    },
    {
      "inputs": [
        {
          "internalType": "uint256",
          "name": "id",
          "type": "uint256"
        }
      ],
      "name": "totalSupply",
      "outputs": [
        {
          "internalType": "uint256",
          "name": "",
          "type": "uint256"
        }
      ],
      "stateMutability": "view",
      "type": "function"
    },
    {
      "inputs": [
        {
          "internalType": "address",
          "name": "newOwner",
          "type": "address"
        }
      ],
      "name": "transferOwnership",
      "outputs": [],
      "stateMutability": "nonpayable",
      "type": "function"
    },
    {
      "inputs": [
        {
          "internalType": "uint256",
          "name": "id",
          "type": "uint256"
        }
      ],
      "name": "uri",
      "outputs": [
        {
          "internalType": "string",
          "name": "",
          "type": "string"
        }
      ],
      "stateMutability": "view",
      "type": "function"
    }
  ],
  "bytecode": "0x60c0604052600c60809081526b20b73a34b8bab29021b7b4b760a11b60a0526005906200002d908262000191565b503480156200003b57600080fd5b5060408051808201909152601281527120b73a34b8bab29021b7b4b7102a37b5b2b760711b6020820152620000708162000088565b506200007c336200009a565b6127106006556200025d565b600262000096828262000191565b5050565b600480546001600160a01b038381166001600160a01b0319831681179093556040519116919082907f8be0079c531659141344cd1fd0a4f28419497f9722a3daafe3b4186f6b6457e090600090a35050565b634e487b7160e01b600052604160045260246000fd5b600181811c908216806200011757607f821691505b6020821081036200013857634e487b7160e01b600052602260045260246000fd5b50919050565b601f8211156200018c57600081815260208120601f850160051c81016020861015620001675750805b601f850160051c820191505b81811015620001885782815560010162000173565b5050505b505050565b81516001600160401b03811115620001ad57620001ad620000ec565b620001c581620001be845462000102565b846200013e565b602080601f831160018114620001fd5760008415620001e45750858301515b600019600386901b1c1916600185901b17855562000188565b600085815260208120601f198616915b828110156200022e578886015182559484019460019091019084016200020d565b50858210156200024d5787850151600019600388901b60f8161c191681555b5050505050600190811b01905550565b61226a806200026d6000396000f3fe608060405234801561001057600080fd5b50600436106100f05760003560e01c8062fdd58e146100f557806301ffc9a71461011b578063056b01ce1461013e57806306fdde03146101535780630e89341c146101685780632eb2c2d61461017b5780634e1273f41461018e5780634f558e79146101ae5780635a3f2672146101c15780636f457683146101e1578063715018a614610201578063771602f7146102095780638da5cb5b1461021c578063a22cb4651461023c578063b390c0ab1461024f578063bd85b03914610262578063e985e9c514610282578063f242432a146102be578063f2fde38b146102d1575b600080fd5b610108610103366004611745565b6102e4565b6040519081526020015b60405180910390f35b61012e610129366004611785565b61037d565b6040519015158152602001610112565b61015161014c366004611848565b6103cd565b005b61015b61044a565b60405161011291906118e6565b61015b6101763660046118f9565b6104d8565b6101516101893660046119c6565b61059d565b6101a161019c366004611a6f565b6105e9565b6040516101129190611b74565b61012e6101bc3660046118f9565b610712565b6101d46101cf366004611b87565b610726565b6040516101129190611be9565b6101f46101ef366004611745565b6108ff565b6040516101129190611c4b565b610151610a00565b610151610217366004611c5e565b610a14565b610224610a89565b6040516001600160a01b039091168152602001610112565b61015161024a366004611c80565b610a98565b61015161025d366004611c5e565b610aa7565b6101086102703660046118f9565b60009081526003602052604090205490565b61012e610290366004611cbc565b6001600160a01b03918216600090815260016020908152604080832093909416825291909152205460ff1690565b6101516102cc366004611cef565b610b12565b6101516102df366004611b87565b610b57565b60006001600160a01b0383166103545760405162461bcd60e51b815260206004820152602a60248201527f455243313135353a2061646472657373207a65726f206973206e6f742061207660448201526930b634b21037bbb732b960b11b60648201526084015b60405180910390fd5b506000818152602081815260408083206001600160a01b03861684529091529020545b92915050565b60006001600160e01b03198216636cdb3d1360e11b14806103ae57506001600160e01b031982166303a24d0760e21b145b8061037757506301ffc9a760e01b6001600160e01b0319831614610377565b60006103d860065490565b90506104013382846040518060400160405280600381526020016203078360ec1b815250610bd0565b60008181526007602052604090206104198482611dd8565b50610428600680546001019055565b60405182908290339060008051602061221583398151915290600090a4505050565b6005805461045790611d53565b80601f016020809104026020016040519081016040528092919081815260200182805461048390611d53565b80156104d05780601f106104a5576101008083540402835291602001916104d0565b820191906000526020600020905b8154815290600101906020018083116104b357829003601f168201915b505050505081565b60606104e382610712565b6104ff5760405162461bcd60e51b815260040161034b90611e97565b6000828152600760205260409020805461051890611d53565b80601f016020809104026020016040519081016040528092919081815260200182805461054490611d53565b80156105915780601f1061056657610100808354040283529160200191610591565b820191906000526020600020905b81548152906001019060200180831161057457829003601f168201915b50505050509050919050565b6001600160a01b0385163314806105b957506105b98533610290565b6105d55760405162461bcd60e51b815260040161034b90611ee4565b6105e28585858585610ce1565b5050505050565b6060815183511461064e5760405162461bcd60e51b815260206004820152602960248201527f455243313135353a206163636f756e747320616e6420696473206c656e677468604482015268040dad2e6dac2e8c6d60bb1b606482015260840161034b565b600083516001600160401b03811115610669576106696117a9565b604051908082528060200260200182016040528015610692578160200160208202803683370190505b50905060005b845181101561070a576106dd8582815181106106b6576106b6611f32565b60200260200101518583815181106106d0576106d0611f32565b60200260200101516102e4565b8282815181106106ef576106ef611f32565b602090810291909101015261070381611f5e565b9050610698565b509392505050565b600090815260036020526040902054151590565b6060600061073360065490565b905060006127105b8281101561077557600061074f86836102e4565b1115610763578161075f81611f5e565b9250505b8061076d81611f5e565b91505061073b565b50806001600160401b0381111561078e5761078e6117a9565b6040519080825280602002602001820160405280156107c757816020015b6107b46116f8565b8152602001906001900390816107ac5790505b50925060006127105b838110156108f65760006107e487836102e4565b11156108e457604051806080016040528082815260200160076000848152602001908152602001600020805461081990611d53565b80601f016020809104026020016040519081016040528092919081815260200182805461084590611d53565b80156108925780601f1061086757610100808354040283529160200191610892565b820191906000526020600020905b81548152906001019060200180831161087557829003601f168201915b50505050508152602001876001600160a01b031681526020016108b588846102e4565b8152508583815181106108ca576108ca611f32565b602002602001018190525081806108e090611f5e565b9250505b806108ee81611f5e565b9150506107d0565b50505050919050565b6109076116f8565b61091082610712565b61092c5760405162461bcd60e51b815260040161034b90611e97565b604051806080016040528083815260200160076000858152602001908152602001600020805461095b90611d53565b80601f016020809104026020016040519081016040528092919081815260200182805461098790611d53565b80156109d45780601f106109a9576101008083540402835291602001916109d4565b820191906000526020600020905b8154815290600101906020018083116109b757829003601f168201915b50505050508152602001846001600160a01b031681526020016109f785856102e4565b90529392505050565b610a08610ecc565b610a126000610f2b565b565b610a1c610ecc565b610a2582610712565b610a415760405162461bcd60e51b815260040161034b90611e97565b610a683383836040518060400160405280600381526020016203078360ec1b815250610bd0565b60405181908390339060008051602061221583398151915290600090a45050565b6004546001600160a01b031690565b610aa3338383610f7d565b5050565b610aaf610ecc565b610ab882610712565b610ad45760405162461bcd60e51b815260040161034b90611e97565b610adf33838361105d565b6040518190839033907f23ff0e75edf108e3d0392d92e13e8c8a868ef19001bd49f9e94876dc46dff87f90600090a45050565b6001600160a01b038516331480610b2e5750610b2e8533610290565b610b4a5760405162461bcd60e51b815260040161034b90611ee4565b6105e285858585856111db565b610b5f610ecc565b6001600160a01b038116610bc45760405162461bcd60e51b815260206004820152602660248201527f4f776e61626c653a206e6577206f776e657220697320746865207a65726f206160448201526564647265737360d01b606482015260840161034b565b610bcd81610f2b565b50565b6001600160a01b038416610c305760405162461bcd60e51b815260206004820152602160248201527f455243313135353a206d696e7420746f20746865207a65726f206164647265736044820152607360f81b606482015260840161034b565b336000610c3c85611301565b90506000610c4985611301565b9050610c5a8360008985858961134c565b6000868152602081815260408083206001600160a01b038b16845290915281208054879290610c8a908490611f77565b909155505060408051878152602081018790526001600160a01b03808a1692600092918716916000805160206121f5833981519152910160405180910390a4610cd8836000898989896114c5565b50505050505050565b8151835114610d435760405162461bcd60e51b815260206004820152602860248201527f455243313135353a2069647320616e6420616d6f756e7473206c656e677468206044820152670dad2e6dac2e8c6d60c31b606482015260840161034b565b6001600160a01b038416610d695760405162461bcd60e51b815260040161034b90611f8a565b33610d7881878787878761134c565b60005b8451811015610e5e576000858281518110610d9857610d98611f32565b602002602001015190506000858381518110610db657610db6611f32565b602090810291909101810151600084815280835260408082206001600160a01b038e168352909352919091205490915081811015610e065760405162461bcd60e51b815260040161034b90611fcf565b6000838152602081815260408083206001600160a01b038e8116855292528083208585039055908b16825281208054849290610e43908490611f77565b9250508190555050505080610e5790611f5e565b9050610d7b565b50846001600160a01b0316866001600160a01b0316826001600160a01b03167f4a39dc06d4c0dbc64b70af90fd698a233a518aa5d07e595d983b8c0526c8f7fb8787604051610eae929190612019565b60405180910390a4610ec4818787878787611627565b505050505050565b33610ed5610a89565b6001600160a01b031614610a125760405162461bcd60e51b815260206004820181905260248201527f4f776e61626c653a2063616c6c6572206973206e6f7420746865206f776e6572604482015260640161034b565b600480546001600160a01b038381166001600160a01b0319831681179093556040519116919082907f8be0079c531659141344cd1fd0a4f28419497f9722a3daafe3b4186f6b6457e090600090a35050565b816001600160a01b0316836001600160a01b031603610ff05760405162461bcd60e51b815260206004820152602960248201527f455243313135353a2073657474696e6720617070726f76616c20737461747573604482015268103337b91039b2b63360b91b606482015260840161034b565b6001600160a01b03838116600081815260016020908152604080832094871680845294825291829020805460ff191686151590811790915591519182527f17307eab39ab6107e8899845ad3d59bd9653f200f220920489ca2b5937696c31910160405180910390a3505050565b6001600160a01b0383166110bf5760405162461bcd60e51b815260206004820152602360248201527f455243313135353a206275726e2066726f6d20746865207a65726f206164647260448201526265737360e81b606482015260840161034b565b3360006110cb84611301565b905060006110d884611301565b90506110f88387600085856040518060200160405280600081525061134c565b6000858152602081815260408083206001600160a01b038a168452909152902054848110156111755760405162461bcd60e51b8152602060048201526024808201527f455243313135353a206275726e20616d6f756e7420657863656564732062616c604482015263616e636560e01b606482015260840161034b565b6000868152602081815260408083206001600160a01b038b81168086529184528285208a8703905582518b81529384018a90529092908816916000805160206121f5833981519152910160405180910390a4604080516020810190915260009052610cd8565b6001600160a01b0384166112015760405162461bcd60e51b815260040161034b90611f8a565b33600061120d85611301565b9050600061121a85611301565b905061122a83898985858961134c565b6000868152602081815260408083206001600160a01b038c1684529091529020548581101561126b5760405162461bcd60e51b815260040161034b90611fcf565b6000878152602081815260408083206001600160a01b038d8116855292528083208985039055908a168252812080548892906112a8908490611f77565b909155505060408051888152602081018890526001600160a01b03808b16928c821692918816916000805160206121f5833981519152910160405180910390a46112f6848a8a8a8a8a6114c5565b505050505050505050565b6040805160018082528183019092526060916000919060208083019080368337019050509050828160008151811061133b5761133b611f32565b602090810291909101015292915050565b6001600160a01b0385166113d35760005b83518110156113d15782818151811061137857611378611f32565b60200260200101516003600086848151811061139657611396611f32565b6020026020010151815260200190815260200160002060008282546113bb9190611f77565b909155506113ca905081611f5e565b905061135d565b505b6001600160a01b038416610ec45760005b8351811015610cd857600084828151811061140157611401611f32565b60200260200101519050600084838151811061141f5761141f611f32565b60200260200101519050600060036000848152602001908152602001600020549050818110156114a25760405162461bcd60e51b815260206004820152602860248201527f455243313135353a206275726e20616d6f756e74206578636565647320746f74604482015267616c537570706c7960c01b606482015260840161034b565b600092835260036020526040909220910390556114be81611f5e565b90506113e4565b6114d7846001600160a01b03166116e9565b15610ec45760405163f23a6e6160e01b81526001600160a01b0385169063f23a6e61906115109089908990889088908890600401612047565b6020604051808303816000875af192505050801561154b575060408051601f3d908101601f191682019092526115489181019061208c565b60015b6115f7576115576120a9565b806308c379a003611590575061156b6120c5565b806115765750611592565b8060405162461bcd60e51b815260040161034b91906118e6565b505b60405162461bcd60e51b815260206004820152603460248201527f455243313135353a207472616e7366657220746f206e6f6e2d455243313135356044820152732932b1b2b4bb32b91034b6b83632b6b2b73a32b960611b606482015260840161034b565b6001600160e01b0319811663f23a6e6160e01b14610cd85760405162461bcd60e51b815260040161034b9061214e565b611639846001600160a01b03166116e9565b15610ec45760405163bc197c8160e01b81526001600160a01b0385169063bc197c81906116729089908990889088908890600401612196565b6020604051808303816000875af19250505080156116ad575060408051601f3d908101601f191682019092526116aa9181019061208c565b60015b6116b9576115576120a9565b6001600160e01b0319811663bc197c8160e01b14610cd85760405162461bcd60e51b815260040161034b9061214e565b6001600160a01b03163b151590565b6040518060800160405280600081526020016060815260200160006001600160a01b03168152602001600081525090565b80356001600160a01b038116811461174057600080fd5b919050565b6000806040838503121561175857600080fd5b61176183611729565b946020939093013593505050565b6001600160e01b031981168114610bcd57600080fd5b60006020828403121561179757600080fd5b81356117a28161176f565b9392505050565b634e487b7160e01b600052604160045260246000fd5b601f8201601f191681016001600160401b03811182821017156117e4576117e46117a9565b6040525050565b60006001600160401b03831115611804576118046117a9565b60405161181b601f8501601f1916602001826117bf565b80915083815284848401111561183057600080fd5b83836020830137600060208583010152509392505050565b6000806040838503121561185b57600080fd5b82356001600160401b0381111561187157600080fd5b8301601f8101851361188257600080fd5b611891858235602084016117eb565b95602094909401359450505050565b6000815180845260005b818110156118c6576020818501810151868301820152016118aa565b506000602082860101526020601f19601f83011685010191505092915050565b6020815260006117a260208301846118a0565b60006020828403121561190b57600080fd5b5035919050565b60006001600160401b0382111561192b5761192b6117a9565b5060051b60200190565b600082601f83011261194657600080fd5b8135602061195382611912565b60405161196082826117bf565b83815260059390931b850182019282810191508684111561198057600080fd5b8286015b8481101561199b5780358352918301918301611984565b509695505050505050565b600082601f8301126119b757600080fd5b6117a2838335602085016117eb565b600080600080600060a086880312156119de57600080fd5b6119e786611729565b94506119f560208701611729565b935060408601356001600160401b0380821115611a1157600080fd5b611a1d89838a01611935565b94506060880135915080821115611a3357600080fd5b611a3f89838a01611935565b93506080880135915080821115611a5557600080fd5b50611a62888289016119a6565b9150509295509295909350565b60008060408385031215611a8257600080fd5b82356001600160401b0380821115611a9957600080fd5b818501915085601f830112611aad57600080fd5b81356020611aba82611912565b604051611ac782826117bf565b83815260059390931b8501820192828101915089841115611ae757600080fd5b948201945b83861015611b0c57611afd86611729565b82529482019490820190611aec565b96505086013592505080821115611b2257600080fd5b50611b2f85828601611935565b9150509250929050565b600081518084526020808501945080840160005b83811015611b6957815187529582019590820190600101611b4d565b509495945050505050565b6020815260006117a26020830184611b39565b600060208284031215611b9957600080fd5b6117a282611729565b805182526000602082015160806020850152611bc160808501826118a0565b6040848101516001600160a01b03169086015260609384015193909401929092525090919050565b6000602080830181845280855180835260408601915060408160051b870101925083870160005b82811015611c3e57603f19888603018452611c2c858351611ba2565b94509285019290850190600101611c10565b5092979650505050505050565b6020815260006117a26020830184611ba2565b60008060408385031215611c7157600080fd5b50508035926020909101359150565b60008060408385031215611c9357600080fd5b611c9c83611729565b915060208301358015158114611cb157600080fd5b809150509250929050565b60008060408385031215611ccf57600080fd5b611cd883611729565b9150611ce660208401611729565b90509250929050565b600080600080600060a08688031215611d0757600080fd5b611d1086611729565b9450611d1e60208701611729565b9350604086013592506060860135915060808601356001600160401b03811115611d4757600080fd5b611a62888289016119a6565b600181811c90821680611d6757607f821691505b602082108103611d8757634e487b7160e01b600052602260045260246000fd5b50919050565b601f821115611dd357600081815260208120601f850160051c81016020861015611db45750805b601f850160051c820191505b81811015610ec457828155600101611dc0565b505050565b81516001600160401b03811115611df157611df16117a9565b611e0581611dff8454611d53565b84611d8d565b602080601f831160018114611e3a5760008415611e225750858301515b600019600386901b1c1916600185901b178555610ec4565b600085815260208120601f198616915b82811015611e6957888601518255948401946001909101908401611e4a565b5085821015611e875787850151600019600388901b60f8161c191681555b5050505050600190811b01905550565b6020808252602d908201527f455243313135354d657461646174613a2055524920736574206f66206e6f6e6560408201526c3c34b9ba32b73a103a37b5b2b760991b606082015260800190565b6020808252602e908201527f455243313135353a2063616c6c6572206973206e6f7420746f6b656e206f776e60408201526d195c881bdc88185c1c1c9bdd995960921b606082015260800190565b634e487b7160e01b600052603260045260246000fd5b634e487b7160e01b600052601160045260246000fd5b600060018201611f7057611f70611f48565b5060010190565b8082018082111561037757610377611f48565b60208082526025908201527f455243313135353a207472616e7366657220746f20746865207a65726f206164604082015264647265737360d81b606082015260800190565b6020808252602a908201527f455243313135353a20696e73756666696369656e742062616c616e636520666f60408201526939103a3930b739b332b960b11b606082015260800190565b60408152600061202c6040830185611b39565b828103602084015261203e8185611b39565b95945050505050565b6001600160a01b03868116825285166020820152604081018490526060810183905260a060808201819052600090612081908301846118a0565b979650505050505050565b60006020828403121561209e57600080fd5b81516117a28161176f565b600060033d11156120c25760046000803e5060005160e01c5b90565b600060443d10156120d35790565b6040516003193d81016004833e81513d6001600160401b03808311602484018310171561210257505050505090565b828501915081518181111561211a5750505050505090565b843d87010160208285010111156121345750505050505090565b612143602082860101876117bf565b509095945050505050565b60208082526028908201527f455243313135353a204552433131353552656365697665722072656a656374656040820152676420746f6b656e7360c01b606082015260800190565b6001600160a01b0386811682528516602082015260a0604082018190526000906121c290830186611b39565b82810360608401526121d48186611b39565b905082810360808401526121e881856118a0565b9897505050505050505056fec3d58168c5ae7397731d063d5bbf3d657854427343f4c083240f7aacaa2d0f6225b428dfde728ccfaddad7e29e4ac23c24ed7fd1a6e3e3f91894a9a073f5dfffa2646970667358221220507d584a436091651d99fcef1d547496649f65f83364e04876b92173a185565764736f6c63430008110033",
  "linkReferences": {},
  "deployedLinkReferences": {}
}