{
  "_format": "hh-sol-artifact-1",
  "contractName": "AQCT1155",
  "sourceName": "contracts/AQCT1155.sol",
  "abi": [
    {
      "inputs": [],
      "stateMutability": "nonpayable",
      "type": "constructor"
    },
    {
      "anonymous": false,
      "inputs": [
        {
          "indexed": true,
          "internalType": "address",
          "name": "account",
          "type": "address"
        },
        {
          "indexed": true,
          "internalType": "address",
          "name": "operator",
          "type": "address"
        },
        {
          "indexed": false,
          "internalType": "bool",
          "name": "approved",
          "type": "bool"
        }
      ],
      "name": "ApprovalForAll",
      "type": "event"
    },
    {
      "anonymous": false,
      "inputs": [
        {
          "indexed": true,
          "internalType": "address",
          "name": "account",
          "type": "address"
        },
        {
          "indexed": true,
          "internalType": "uint256",
          "name": "id",
          "type": "uint256"
        },
        {
          "indexed": true,
          "internalType": "uint256",
          "name": "amount",
          "type": "uint256"
        }
      ],
      "name": "Burned",
      "type": "event"
    },
    {
      "anonymous": false,
      "inputs": [
        {
          "indexed": true,
          "internalType": "address",
          "name": "account",
          "type": "address"
        },
        {
          "indexed": true,
          "internalType": "uint256",
          "name": "id",
          "type": "uint256"
        },
        {
          "indexed": true,
          "internalType": "uint256",
          "name": "amount",
          "type": "uint256"
        }
      ],
      "name": "Minted",
      "type": "event"
    },
    {
      "anonymous": false,
      "inputs": [
        {
          "indexed": true,
          "internalType": "address",
          "name": "previousOwner",
          "type": "address"
        },
        {
          "indexed": true,
          "internalType": "address",
          "name": "newOwner",
          "type": "address"
        }
      ],
      "name": "OwnershipTransferred",
      "type": "event"
    },
    {
      "anonymous": false,
      "inputs": [
        {
          "indexed": true,
          "internalType": "address",
          "name": "operator",
          "type": "address"
        },
        {
          "indexed": true,
          "internalType": "address",
          "name": "from",
          "type": "address"
        },
        {
          "indexed": true,
          "internalType": "address",
          "name": "to",
          "type": "address"
        },
        {
          "indexed": false,
          "internalType": "uint256[]",
          "name": "ids",
          "type": "uint256[]"
        },
        {
          "indexed": false,
          "internalType": "uint256[]",
          "name": "values",
          "type": "uint256[]"
        }
      ],
      "name": "TransferBatch",
      "type": "event"
    },
    {
      "anonymous": false,
      "inputs": [
        {
          "indexed": true,
          "internalType": "address",
          "name": "operator",
          "type": "address"
        },
        {
          "indexed": true,
          "internalType": "address",
          "name": "from",
          "type": "address"
        },
        {
          "indexed": true,
          "internalType": "address",
          "name": "to",
          "type": "address"
        },
        {
          "indexed": false,
          "internalType": "uint256",
          "name": "id",
          "type": "uint256"
        },
        {
          "indexed": false,
          "internalType": "uint256",
          "name": "value",
          "type": "uint256"
        }
      ],
      "name": "TransferSingle",
      "type": "event"
    },
    {
      "anonymous": false,
      "inputs": [
        {
          "indexed": false,
          "internalType": "string",
          "name": "value",
          "type": "string"
        },
        {
          "indexed": true,
          "internalType": "uint256",
          "name": "id",
          "type": "uint256"
        }
      ],
      "name": "URI",
      "type": "event"
    },
    {
      "inputs": [
        {
          "internalType": "uint256",
          "name": "id",
          "type": "uint256"
        },
        {
          "internalType": "uint256",
          "name": "amount",
          "type": "uint256"
        }
      ],
      "name": "add",
      "outputs": [],
      "stateMutability": "nonpayable",
      "type": "function"
    },
    {
      "inputs": [
        {
          "internalType": "address",
          "name": "account",
          "type": "address"
        },
        {
          "internalType": "uint256",
          "name": "id",
          "type": "uint256"
        }
      ],
      "name": "balanceOf",
      "outputs": [
        {
          "internalType": "uint256",
          "name": "",
          "type": "uint256"
        }
      ],
      "stateMutability": "view",
      "type": "function"
    },
    {
      "inputs": [
        {
          "internalType": "address[]",
          "name": "accounts",
          "type": "address[]"
        },
        {
          "internalType": "uint256[]",
          "name": "ids",
          "type": "uint256[]"
        }
      ],
      "name": "balanceOfBatch",
      "outputs": [
        {
          "internalType": "uint256[]",
          "name": "",
          "type": "uint256[]"
        }
      ],
      "stateMutability": "view",
      "type": "function"
    },
    {
      "inputs": [
        {
          "internalType": "uint256",
          "name": "id",
          "type": "uint256"
        },
        {
          "internalType": "uint256",
          "name": "amount",
          "type": "uint256"
        }
      ],
      "name": "burn",
      "outputs": [],
      "stateMutability": "nonpayable",
      "type": "function"
    },
    {
      "inputs": [
        {
          "internalType": "uint256",
          "name": "id",
          "type": "uint256"
        }
      ],
      "name": "exists",
      "outputs": [
        {
          "internalType": "bool",
          "name": "",
          "type": "bool"
        }
      ],
      "stateMutability": "view",
      "type": "function"
    },
    {
      "inputs": [
        {
          "internalType": "address",
          "name": "account",
          "type": "address"
        },
        {
          "internalType": "address",
          "name": "operator",
          "type": "address"
        }
      ],
      "name": "isApprovedForAll",
      "outputs": [
        {
          "internalType": "bool",
          "name": "",
          "type": "bool"
        }
      ],
      "stateMutability": "view",
      "type": "function"
    },
    {
      "inputs": [
        {
          "internalType": "string",
          "name": "tokenUri",
          "type": "string"
        },
        {
          "internalType": "uint256",
          "name": "amount",
          "type": "uint256"
        }
      ],
      "name": "mint",
      "outputs": [],
      "stateMutability": "nonpayable",
      "type": "function"
    },
    {
      "inputs": [],
      "name": "owner",
      "outputs": [
        {
          "internalType": "address",
          "name": "",
          "type": "address"
        }
      ],
      "stateMutability": "view",
      "type": "function"
    },
    {
      "inputs": [],
      "name": "renounceOwnership",
      "outputs": [],
      "stateMutability": "nonpayable",
      "type": "function"
    },
    {
      "inputs": [
        {
          "internalType": "address",
          "name": "from",
          "type": "address"
        },
        {
          "internalType": "address",
          "name": "to",
          "type": "address"
        },
        {
          "internalType": "uint256[]",
          "name": "ids",
          "type": "uint256[]"
        },
        {
          "internalType": "uint256[]",
          "name": "amounts",
          "type": "uint256[]"
        },
        {
          "internalType": "bytes",
          "name": "data",
          "type": "bytes"
        }
      ],
      "name": "safeBatchTransferFrom",
      "outputs": [],
      "stateMutability": "nonpayable",
      "type": "function"
    },
    {
      "inputs": [
        {
          "internalType": "address",
          "name": "from",
          "type": "address"
        },
        {
          "internalType": "address",
          "name": "to",
          "type": "address"
        },
        {
          "internalType": "uint256",
          "name": "id",
          "type": "uint256"
        },
        {
          "internalType": "uint256",
          "name": "amount",
          "type": "uint256"
        },
        {
          "internalType": "bytes",
          "name": "data",
          "type": "bytes"
        }
      ],
      "name": "safeTransferFrom",
      "outputs": [],
      "stateMutability": "nonpayable",
      "type": "function"
    },
    {
      "inputs": [
        {
          "internalType": "address",
          "name": "operator",
          "type": "address"
        },
        {
          "internalType": "bool",
          "name": "approved",
          "type": "bool"
        }
      ],
      "name": "setApprovalForAll",
      "outputs": [],
      "stateMutability": "nonpayable",
      "type": "function"
    },
    {
      "inputs": [
        {
          "internalType": "bytes4",
          "name": "interfaceId",
          "type": "bytes4"
        }
      ],
      "name": "supportsInterface",
      "outputs": [
        {
          "internalType": "bool",
          "name": "",
          "type": "bool"
        }
      ],
      "stateMutability": "view",
      "type": "function"
    },
    {
      "inputs": [
        {
          "internalType": "address",
          "name": "account",
          "type": "address"
        },
        {
          "internalType": "uint256",
          "name": "id",
          "type": "uint256"
        }
      ],
      "name": "token",
      "outputs": [
        {
          "components": [
            {
              "internalType": "uint256",
              "name": "tokenId",
              "type": "uint256"
            },
            {
              "internalType": "string",
              "name": "uri",
              "type": "string"
            },
            {
              "internalType": "address",
              "name": "owner",
              "type": "address"
            },
            {
              "internalType": "uint256",
              "name": "amount",
              "type": "uint256"
            }
          ],
          "internalType": "struct IAQCToken.AQCT",
          "name": "",
          "type": "tuple"
        }
      ],
      "stateMutability": "view",
      "type": "function"
    },
    {
      "inputs": [
        {
          "internalType": "address",
          "name": "account",
          "type": "address"
        }
      ],
      "name": "tokensOf",
      "outputs": [
        {
          "components": [
            {
              "internalType": "uint256",
              "name": "tokenId",
              "type": "uint256"
            },
            {
              "internalType": "string",
              "name": "uri",
              "type": "string"
            },
            {
              "internalType": "address",
              "name": "owner",
              "type": "address"
            },
            {
              "internalType": "uint256",
              "name": "amount",
              "type": "uint256"
            }
          ],
          "internalType": "struct IAQCToken.AQCT[]",
          "name": "tokens",
          "type": "tuple[]"
        }
      ],
      "stateMutability": "view",
      "type": "function"
    },
    {
      "inputs": [
        {
          "internalType": "uint256",
          "name": "id",
          "type": "uint256"
        }
      ],
      "name": "totalSupply",
      "outputs": [
        {
          "internalType": "uint256",
          "name": "",
          "type": "uint256"
        }
      ],
      "stateMutability": "view",
      "type": "function"
    },
    {
      "inputs": [
        {
          "internalType": "address",
          "name": "newOwner",
          "type": "address"
        }
      ],
      "name": "transferOwnership",
      "outputs": [],
      "stateMutability": "nonpayable",
      "type": "function"
    },
    {
      "inputs": [
        {
          "internalType": "uint256",
          "name": "id",
          "type": "uint256"
        }
      ],
      "name": "uri",
      "outputs": [
        {
          "internalType": "string",
          "name": "",
          "type": "string"
        }
      ],
      "stateMutability": "view",
      "type": "function"
    }
  ],
  "bytecode": "0x60806040523480156200001157600080fd5b5060408051808201909152601281527120b73a34b8bab29021b7b4b7102a37b5b2b760711b602082015262000046816200005e565b50620000523362000070565b61271060055562000233565b60026200006c828262000167565b5050565b600480546001600160a01b038381166001600160a01b0319831681179093556040519116919082907f8be0079c531659141344cd1fd0a4f28419497f9722a3daafe3b4186f6b6457e090600090a35050565b634e487b7160e01b600052604160045260246000fd5b600181811c90821680620000ed57607f821691505b6020821081036200010e57634e487b7160e01b600052602260045260246000fd5b50919050565b601f8211156200016257600081815260208120601f850160051c810160208610156200013d5750805b601f850160051c820191505b818110156200015e5782815560010162000149565b5050505b505050565b81516001600160401b03811115620001835762000183620000c2565b6200019b81620001948454620000d8565b8462000114565b602080601f831160018114620001d35760008415620001ba5750858301515b600019600386901b1c1916600185901b1785556200015e565b600085815260208120601f198616915b828110156200020457888601518255948401946001909101908401620001e3565b5085821015620002235787850151600019600388901b60f8161c191681555b5050505050600190811b01905550565b6121c980620002436000396000f3fe608060405234801561001057600080fd5b50600436106100e55760003560e01c8062fdd58e146100ea57806301ffc9a714610110578063056b01ce146101335780630e89341c146101485780632eb2c2d6146101685780634e1273f41461017b5780634f558e791461019b5780635a3f2672146101ae5780636f457683146101ce578063715018a6146101ee578063771602f7146101f65780638da5cb5b14610209578063a22cb46514610229578063b390c0ab1461023c578063bd85b0391461024f578063e985e9c51461026f578063f242432a146102ab578063f2fde38b146102be575b600080fd5b6100fd6100f83660046116a4565b6102d1565b6040519081526020015b60405180910390f35b61012361011e3660046116e4565b61036a565b6040519015158152602001610107565b6101466101413660046117a7565b6103ba565b005b61015b6101563660046117ff565b610437565b604051610107919061185e565b610146610176366004611925565b6104fc565b61018e6101893660046119ce565b610548565b6040516101079190611ad3565b6101236101a93660046117ff565b610671565b6101c16101bc366004611ae6565b610685565b6040516101079190611b48565b6101e16101dc3660046116a4565b61085e565b6040516101079190611baa565b61014661095f565b610146610204366004611bbd565b610973565b6102116109e8565b6040516001600160a01b039091168152602001610107565b610146610237366004611bdf565b6109f7565b61014661024a366004611bbd565b610a06565b6100fd61025d3660046117ff565b60009081526003602052604090205490565b61012361027d366004611c1b565b6001600160a01b03918216600090815260016020908152604080832093909416825291909152205460ff1690565b6101466102b9366004611c4e565b610a71565b6101466102cc366004611ae6565b610ab6565b60006001600160a01b0383166103415760405162461bcd60e51b815260206004820152602a60248201527f455243313135353a2061646472657373207a65726f206973206e6f742061207660448201526930b634b21037bbb732b960b11b60648201526084015b60405180910390fd5b506000818152602081815260408083206001600160a01b03861684529091529020545b92915050565b60006001600160e01b03198216636cdb3d1360e11b148061039b57506001600160e01b031982166303a24d0760e21b145b8061036457506301ffc9a760e01b6001600160e01b0319831614610364565b60006103c560055490565b90506103ee3382846040518060400160405280600381526020016203078360ec1b815250610b2f565b60008181526006602052604090206104068482611d37565b50610415600580546001019055565b60405182908290339060008051602061217483398151915290600090a4505050565b606061044282610671565b61045e5760405162461bcd60e51b815260040161033890611df6565b6000828152600660205260409020805461047790611cb2565b80601f01602080910402602001604051908101604052809291908181526020018280546104a390611cb2565b80156104f05780601f106104c5576101008083540402835291602001916104f0565b820191906000526020600020905b8154815290600101906020018083116104d357829003601f168201915b50505050509050919050565b6001600160a01b0385163314806105185750610518853361027d565b6105345760405162461bcd60e51b815260040161033890611e43565b6105418585858585610c40565b5050505050565b606081518351146105ad5760405162461bcd60e51b815260206004820152602960248201527f455243313135353a206163636f756e747320616e6420696473206c656e677468604482015268040dad2e6dac2e8c6d60bb1b6064820152608401610338565b600083516001600160401b038111156105c8576105c8611708565b6040519080825280602002602001820160405280156105f1578160200160208202803683370190505b50905060005b84518110156106695761063c85828151811061061557610615611e91565b602002602001015185838151811061062f5761062f611e91565b60200260200101516102d1565b82828151811061064e5761064e611e91565b602090810291909101015261066281611ebd565b90506105f7565b509392505050565b600090815260036020526040902054151590565b6060600061069260055490565b905060006127105b828110156106d45760006106ae86836102d1565b11156106c257816106be81611ebd565b9250505b806106cc81611ebd565b91505061069a565b50806001600160401b038111156106ed576106ed611708565b60405190808252806020026020018201604052801561072657816020015b610713611657565b81526020019060019003908161070b5790505b50925060006127105b8381101561085557600061074387836102d1565b111561084357604051806080016040528082815260200160066000848152602001908152602001600020805461077890611cb2565b80601f01602080910402602001604051908101604052809291908181526020018280546107a490611cb2565b80156107f15780601f106107c6576101008083540402835291602001916107f1565b820191906000526020600020905b8154815290600101906020018083116107d457829003601f168201915b50505050508152602001876001600160a01b0316815260200161081488846102d1565b81525085838151811061082957610829611e91565b6020026020010181905250818061083f90611ebd565b9250505b8061084d81611ebd565b91505061072f565b50505050919050565b610866611657565b61086f82610671565b61088b5760405162461bcd60e51b815260040161033890611df6565b60405180608001604052808381526020016006600085815260200190815260200160002080546108ba90611cb2565b80601f01602080910402602001604051908101604052809291908181526020018280546108e690611cb2565b80156109335780601f1061090857610100808354040283529160200191610933565b820191906000526020600020905b81548152906001019060200180831161091657829003601f168201915b50505050508152602001846001600160a01b0316815260200161095685856102d1565b90529392505050565b610967610e2b565b6109716000610e8a565b565b61097b610e2b565b61098482610671565b6109a05760405162461bcd60e51b815260040161033890611df6565b6109c73383836040518060400160405280600381526020016203078360ec1b815250610b2f565b60405181908390339060008051602061217483398151915290600090a45050565b6004546001600160a01b031690565b610a02338383610edc565b5050565b610a0e610e2b565b610a1782610671565b610a335760405162461bcd60e51b815260040161033890611df6565b610a3e338383610fbc565b6040518190839033907f23ff0e75edf108e3d0392d92e13e8c8a868ef19001bd49f9e94876dc46dff87f90600090a45050565b6001600160a01b038516331480610a8d5750610a8d853361027d565b610aa95760405162461bcd60e51b815260040161033890611e43565b610541858585858561113a565b610abe610e2b565b6001600160a01b038116610b235760405162461bcd60e51b815260206004820152602660248201527f4f776e61626c653a206e6577206f776e657220697320746865207a65726f206160448201526564647265737360d01b6064820152608401610338565b610b2c81610e8a565b50565b6001600160a01b038416610b8f5760405162461bcd60e51b815260206004820152602160248201527f455243313135353a206d696e7420746f20746865207a65726f206164647265736044820152607360f81b6064820152608401610338565b336000610b9b85611260565b90506000610ba885611260565b9050610bb9836000898585896112ab565b6000868152602081815260408083206001600160a01b038b16845290915281208054879290610be9908490611ed6565b909155505060408051878152602081018790526001600160a01b03808a169260009291871691600080516020612154833981519152910160405180910390a4610c3783600089898989611424565b50505050505050565b8151835114610ca25760405162461bcd60e51b815260206004820152602860248201527f455243313135353a2069647320616e6420616d6f756e7473206c656e677468206044820152670dad2e6dac2e8c6d60c31b6064820152608401610338565b6001600160a01b038416610cc85760405162461bcd60e51b815260040161033890611ee9565b33610cd78187878787876112ab565b60005b8451811015610dbd576000858281518110610cf757610cf7611e91565b602002602001015190506000858381518110610d1557610d15611e91565b602090810291909101810151600084815280835260408082206001600160a01b038e168352909352919091205490915081811015610d655760405162461bcd60e51b815260040161033890611f2e565b6000838152602081815260408083206001600160a01b038e8116855292528083208585039055908b16825281208054849290610da2908490611ed6565b9250508190555050505080610db690611ebd565b9050610cda565b50846001600160a01b0316866001600160a01b0316826001600160a01b03167f4a39dc06d4c0dbc64b70af90fd698a233a518aa5d07e595d983b8c0526c8f7fb8787604051610e0d929190611f78565b60405180910390a4610e23818787878787611586565b505050505050565b33610e346109e8565b6001600160a01b0316146109715760405162461bcd60e51b815260206004820181905260248201527f4f776e61626c653a2063616c6c6572206973206e6f7420746865206f776e65726044820152606401610338565b600480546001600160a01b038381166001600160a01b0319831681179093556040519116919082907f8be0079c531659141344cd1fd0a4f28419497f9722a3daafe3b4186f6b6457e090600090a35050565b816001600160a01b0316836001600160a01b031603610f4f5760405162461bcd60e51b815260206004820152602960248201527f455243313135353a2073657474696e6720617070726f76616c20737461747573604482015268103337b91039b2b63360b91b6064820152608401610338565b6001600160a01b03838116600081815260016020908152604080832094871680845294825291829020805460ff191686151590811790915591519182527f17307eab39ab6107e8899845ad3d59bd9653f200f220920489ca2b5937696c31910160405180910390a3505050565b6001600160a01b03831661101e5760405162461bcd60e51b815260206004820152602360248201527f455243313135353a206275726e2066726f6d20746865207a65726f206164647260448201526265737360e81b6064820152608401610338565b33600061102a84611260565b9050600061103784611260565b9050611057838760008585604051806020016040528060008152506112ab565b6000858152602081815260408083206001600160a01b038a168452909152902054848110156110d45760405162461bcd60e51b8152602060048201526024808201527f455243313135353a206275726e20616d6f756e7420657863656564732062616c604482015263616e636560e01b6064820152608401610338565b6000868152602081815260408083206001600160a01b038b81168086529184528285208a8703905582518b81529384018a9052909290881691600080516020612154833981519152910160405180910390a4604080516020810190915260009052610c37565b6001600160a01b0384166111605760405162461bcd60e51b815260040161033890611ee9565b33600061116c85611260565b9050600061117985611260565b90506111898389898585896112ab565b6000868152602081815260408083206001600160a01b038c168452909152902054858110156111ca5760405162461bcd60e51b815260040161033890611f2e565b6000878152602081815260408083206001600160a01b038d8116855292528083208985039055908a16825281208054889290611207908490611ed6565b909155505060408051888152602081018890526001600160a01b03808b16928c82169291881691600080516020612154833981519152910160405180910390a4611255848a8a8a8a8a611424565b505050505050505050565b6040805160018082528183019092526060916000919060208083019080368337019050509050828160008151811061129a5761129a611e91565b602090810291909101015292915050565b6001600160a01b0385166113325760005b8351811015611330578281815181106112d7576112d7611e91565b6020026020010151600360008684815181106112f5576112f5611e91565b60200260200101518152602001908152602001600020600082825461131a9190611ed6565b90915550611329905081611ebd565b90506112bc565b505b6001600160a01b038416610e235760005b8351811015610c3757600084828151811061136057611360611e91565b60200260200101519050600084838151811061137e5761137e611e91565b60200260200101519050600060036000848152602001908152602001600020549050818110156114015760405162461bcd60e51b815260206004820152602860248201527f455243313135353a206275726e20616d6f756e74206578636565647320746f74604482015267616c537570706c7960c01b6064820152608401610338565b6000928352600360205260409092209103905561141d81611ebd565b9050611343565b611436846001600160a01b0316611648565b15610e235760405163f23a6e6160e01b81526001600160a01b0385169063f23a6e619061146f9089908990889088908890600401611fa6565b6020604051808303816000875af19250505080156114aa575060408051601f3d908101601f191682019092526114a791810190611feb565b60015b611556576114b6612008565b806308c379a0036114ef57506114ca612024565b806114d557506114f1565b8060405162461bcd60e51b8152600401610338919061185e565b505b60405162461bcd60e51b815260206004820152603460248201527f455243313135353a207472616e7366657220746f206e6f6e2d455243313135356044820152732932b1b2b4bb32b91034b6b83632b6b2b73a32b960611b6064820152608401610338565b6001600160e01b0319811663f23a6e6160e01b14610c375760405162461bcd60e51b8152600401610338906120ad565b611598846001600160a01b0316611648565b15610e235760405163bc197c8160e01b81526001600160a01b0385169063bc197c81906115d190899089908890889088906004016120f5565b6020604051808303816000875af192505050801561160c575060408051601f3d908101601f1916820190925261160991810190611feb565b60015b611618576114b6612008565b6001600160e01b0319811663bc197c8160e01b14610c375760405162461bcd60e51b8152600401610338906120ad565b6001600160a01b03163b151590565b6040518060800160405280600081526020016060815260200160006001600160a01b03168152602001600081525090565b80356001600160a01b038116811461169f57600080fd5b919050565b600080604083850312156116b757600080fd5b6116c083611688565b946020939093013593505050565b6001600160e01b031981168114610b2c57600080fd5b6000602082840312156116f657600080fd5b8135611701816116ce565b9392505050565b634e487b7160e01b600052604160045260246000fd5b601f8201601f191681016001600160401b038111828210171561174357611743611708565b6040525050565b60006001600160401b0383111561176357611763611708565b60405161177a601f8501601f19166020018261171e565b80915083815284848401111561178f57600080fd5b83836020830137600060208583010152509392505050565b600080604083850312156117ba57600080fd5b82356001600160401b038111156117d057600080fd5b8301601f810185136117e157600080fd5b6117f08582356020840161174a565b95602094909401359450505050565b60006020828403121561181157600080fd5b5035919050565b6000815180845260005b8181101561183e57602081850181015186830182015201611822565b506000602082860101526020601f19601f83011685010191505092915050565b6020815260006117016020830184611818565b60006001600160401b0382111561188a5761188a611708565b5060051b60200190565b600082601f8301126118a557600080fd5b813560206118b282611871565b6040516118bf828261171e565b83815260059390931b85018201928281019150868411156118df57600080fd5b8286015b848110156118fa57803583529183019183016118e3565b509695505050505050565b600082601f83011261191657600080fd5b6117018383356020850161174a565b600080600080600060a0868803121561193d57600080fd5b61194686611688565b945061195460208701611688565b935060408601356001600160401b038082111561197057600080fd5b61197c89838a01611894565b9450606088013591508082111561199257600080fd5b61199e89838a01611894565b935060808801359150808211156119b457600080fd5b506119c188828901611905565b9150509295509295909350565b600080604083850312156119e157600080fd5b82356001600160401b03808211156119f857600080fd5b818501915085601f830112611a0c57600080fd5b81356020611a1982611871565b604051611a26828261171e565b83815260059390931b8501820192828101915089841115611a4657600080fd5b948201945b83861015611a6b57611a5c86611688565b82529482019490820190611a4b565b96505086013592505080821115611a8157600080fd5b50611a8e85828601611894565b9150509250929050565b600081518084526020808501945080840160005b83811015611ac857815187529582019590820190600101611aac565b509495945050505050565b6020815260006117016020830184611a98565b600060208284031215611af857600080fd5b61170182611688565b805182526000602082015160806020850152611b206080850182611818565b6040848101516001600160a01b03169086015260609384015193909401929092525090919050565b6000602080830181845280855180835260408601915060408160051b870101925083870160005b82811015611b9d57603f19888603018452611b8b858351611b01565b94509285019290850190600101611b6f565b5092979650505050505050565b6020815260006117016020830184611b01565b60008060408385031215611bd057600080fd5b50508035926020909101359150565b60008060408385031215611bf257600080fd5b611bfb83611688565b915060208301358015158114611c1057600080fd5b809150509250929050565b60008060408385031215611c2e57600080fd5b611c3783611688565b9150611c4560208401611688565b90509250929050565b600080600080600060a08688031215611c6657600080fd5b611c6f86611688565b9450611c7d60208701611688565b9350604086013592506060860135915060808601356001600160401b03811115611ca657600080fd5b6119c188828901611905565b600181811c90821680611cc657607f821691505b602082108103611ce657634e487b7160e01b600052602260045260246000fd5b50919050565b601f821115611d3257600081815260208120601f850160051c81016020861015611d135750805b601f850160051c820191505b81811015610e2357828155600101611d1f565b505050565b81516001600160401b03811115611d5057611d50611708565b611d6481611d5e8454611cb2565b84611cec565b602080601f831160018114611d995760008415611d815750858301515b600019600386901b1c1916600185901b178555610e23565b600085815260208120601f198616915b82811015611dc857888601518255948401946001909101908401611da9565b5085821015611de65787850151600019600388901b60f8161c191681555b5050505050600190811b01905550565b6020808252602d908201527f455243313135354d657461646174613a2055524920736574206f66206e6f6e6560408201526c3c34b9ba32b73a103a37b5b2b760991b606082015260800190565b6020808252602e908201527f455243313135353a2063616c6c6572206973206e6f7420746f6b656e206f776e60408201526d195c881bdc88185c1c1c9bdd995960921b606082015260800190565b634e487b7160e01b600052603260045260246000fd5b634e487b7160e01b600052601160045260246000fd5b600060018201611ecf57611ecf611ea7565b5060010190565b8082018082111561036457610364611ea7565b60208082526025908201527f455243313135353a207472616e7366657220746f20746865207a65726f206164604082015264647265737360d81b606082015260800190565b6020808252602a908201527f455243313135353a20696e73756666696369656e742062616c616e636520666f60408201526939103a3930b739b332b960b11b606082015260800190565b604081526000611f8b6040830185611a98565b8281036020840152611f9d8185611a98565b95945050505050565b6001600160a01b03868116825285166020820152604081018490526060810183905260a060808201819052600090611fe090830184611818565b979650505050505050565b600060208284031215611ffd57600080fd5b8151611701816116ce565b600060033d11156120215760046000803e5060005160e01c5b90565b600060443d10156120325790565b6040516003193d81016004833e81513d6001600160401b03808311602484018310171561206157505050505090565b82850191508151818111156120795750505050505090565b843d87010160208285010111156120935750505050505090565b6120a26020828601018761171e565b509095945050505050565b60208082526028908201527f455243313135353a204552433131353552656365697665722072656a656374656040820152676420746f6b656e7360c01b606082015260800190565b6001600160a01b0386811682528516602082015260a06040820181905260009061212190830186611a98565b82810360608401526121338186611a98565b905082810360808401526121478185611818565b9897505050505050505056fec3d58168c5ae7397731d063d5bbf3d657854427343f4c083240f7aacaa2d0f6225b428dfde728ccfaddad7e29e4ac23c24ed7fd1a6e3e3f91894a9a073f5dfffa264697066735822122096cb9f31eb176ca651da25e524e0a5073fc8d093793ada134b315409323147e364736f6c63430008110033",
  "linkReferences": {},
  "deployedLinkReferences": {}
}