{
  "_format": "hh-sol-artifact-1",
  "contractName": "FantationMarket",
  "sourceName": "contracts/FantationMarket.sol",
  "abi": [
    {
      "inputs": [],
      "stateMutability": "nonpayable",
      "type": "constructor"
    },
    {
      "anonymous": false,
      "inputs": [
        {
          "indexed": true,
          "internalType": "uint256",
          "name": "tokenId",
          "type": "uint256"
        },
        {
          "indexed": true,
          "internalType": "address",
          "name": "seller",
          "type": "address"
        },
        {
          "indexed": true,
          "internalType": "address",
          "name": "buyer",
          "type": "address"
        },
        {
          "indexed": false,
          "internalType": "uint256",
          "name": "price",
          "type": "uint256"
        },
        {
          "indexed": false,
          "internalType": "uint256",
          "name": "amount",
          "type": "uint256"
        }
      ],
      "name": "Bought",
      "type": "event"
    },
    {
      "anonymous": false,
      "inputs": [
        {
          "indexed": false,
          "internalType": "uint256",
          "name": "fee",
          "type": "uint256"
        }
      ],
      "name": "ChangedFee",
      "type": "event"
    },
    {
      "anonymous": false,
      "inputs": [
        {
          "indexed": false,
          "internalType": "uint256",
          "name": "price",
          "type": "uint256"
        }
      ],
      "name": "ChangedListingFee",
      "type": "event"
    },
    {
      "anonymous": false,
      "inputs": [
        {
          "indexed": false,
          "internalType": "uint256",
          "name": "itemId",
          "type": "uint256"
        },
        {
          "indexed": true,
          "internalType": "uint256",
          "name": "tokenId",
          "type": "uint256"
        },
        {
          "indexed": true,
          "internalType": "address",
          "name": "seller",
          "type": "address"
        },
        {
          "indexed": false,
          "internalType": "uint256",
          "name": "price",
          "type": "uint256"
        },
        {
          "indexed": false,
          "internalType": "uint256",
          "name": "amount",
          "type": "uint256"
        }
      ],
      "name": "MarketItemListed",
      "type": "event"
    },
    {
      "anonymous": false,
      "inputs": [
        {
          "indexed": true,
          "internalType": "address",
          "name": "previousOwner",
          "type": "address"
        },
        {
          "indexed": true,
          "internalType": "address",
          "name": "newOwner",
          "type": "address"
        }
      ],
      "name": "OwnershipTransferred",
      "type": "event"
    },
    {
      "anonymous": false,
      "inputs": [],
      "name": "Withdrawn",
      "type": "event"
    },
    {
      "anonymous": false,
      "inputs": [
        {
          "indexed": true,
          "internalType": "uint256",
          "name": "itemId",
          "type": "uint256"
        }
      ],
      "name": "WithdrawnItem",
      "type": "event"
    },
    {
      "anonymous": false,
      "inputs": [],
      "name": "WithdrawnMarket",
      "type": "event"
    },
    {
      "inputs": [],
      "name": "allItems",
      "outputs": [
        {
          "components": [
            {
              "internalType": "uint256",
              "name": "itemId",
              "type": "uint256"
            },
            {
              "internalType": "address",
              "name": "nftContractAddress",
              "type": "address"
            },
            {
              "internalType": "uint256",
              "name": "tokenId",
              "type": "uint256"
            },
            {
              "internalType": "string",
              "name": "uri",
              "type": "string"
            },
            {
              "internalType": "address payable",
              "name": "seller",
              "type": "address"
            },
            {
              "internalType": "uint256",
              "name": "price",
              "type": "uint256"
            },
            {
              "internalType": "uint256",
              "name": "amount",
              "type": "uint256"
            },
            {
              "internalType": "bool",
              "name": "isSold",
              "type": "bool"
            },
            {
              "internalType": "bool",
              "name": "isPresent",
              "type": "bool"
            }
          ],
          "internalType": "struct IMarketplace.MarketItem[]",
          "name": "items",
          "type": "tuple[]"
        }
      ],
      "stateMutability": "view",
      "type": "function"
    },
    {
      "inputs": [
        {
          "internalType": "uint256",
          "name": "itemId",
          "type": "uint256"
        },
        {
          "internalType": "uint256",
          "name": "amount",
          "type": "uint256"
        }
      ],
      "name": "buy",
      "outputs": [],
      "stateMutability": "payable",
      "type": "function"
    },
    {
      "inputs": [
        {
          "internalType": "uint256",
          "name": "_fee",
          "type": "uint256"
        }
      ],
      "name": "changeFee",
      "outputs": [],
      "stateMutability": "nonpayable",
      "type": "function"
    },
    {
      "inputs": [
        {
          "internalType": "uint256",
          "name": "_fee",
          "type": "uint256"
        }
      ],
      "name": "changeListingFee",
      "outputs": [],
      "stateMutability": "nonpayable",
      "type": "function"
    },
    {
      "inputs": [
        {
          "internalType": "uint256",
          "name": "price",
          "type": "uint256"
        },
        {
          "internalType": "uint256",
          "name": "amount",
          "type": "uint256"
        }
      ],
      "name": "cost",
      "outputs": [
        {
          "internalType": "uint256",
          "name": "",
          "type": "uint256"
        }
      ],
      "stateMutability": "view",
      "type": "function"
    },
    {
      "inputs": [],
      "name": "fee",
      "outputs": [
        {
          "internalType": "uint256",
          "name": "",
          "type": "uint256"
        }
      ],
      "stateMutability": "view",
      "type": "function"
    },
    {
      "inputs": [
        {
          "internalType": "uint256",
          "name": "itemId",
          "type": "uint256"
        }
      ],
      "name": "item",
      "outputs": [
        {
          "components": [
            {
              "internalType": "uint256",
              "name": "itemId",
              "type": "uint256"
            },
            {
              "internalType": "address",
              "name": "nftContractAddress",
              "type": "address"
            },
            {
              "internalType": "uint256",
              "name": "tokenId",
              "type": "uint256"
            },
            {
              "internalType": "string",
              "name": "uri",
              "type": "string"
            },
            {
              "internalType": "address payable",
              "name": "seller",
              "type": "address"
            },
            {
              "internalType": "uint256",
              "name": "price",
              "type": "uint256"
            },
            {
              "internalType": "uint256",
              "name": "amount",
              "type": "uint256"
            },
            {
              "internalType": "bool",
              "name": "isSold",
              "type": "bool"
            },
            {
              "internalType": "bool",
              "name": "isPresent",
              "type": "bool"
            }
          ],
          "internalType": "struct IMarketplace.MarketItem",
          "name": "items",
          "type": "tuple"
        }
      ],
      "stateMutability": "view",
      "type": "function"
    },
    {
      "inputs": [
        {
          "internalType": "address",
          "name": "account",
          "type": "address"
        }
      ],
      "name": "itemsOf",
      "outputs": [
        {
          "components": [
            {
              "internalType": "uint256",
              "name": "itemId",
              "type": "uint256"
            },
            {
              "internalType": "address",
              "name": "nftContractAddress",
              "type": "address"
            },
            {
              "internalType": "uint256",
              "name": "tokenId",
              "type": "uint256"
            },
            {
              "internalType": "string",
              "name": "uri",
              "type": "string"
            },
            {
              "internalType": "address payable",
              "name": "seller",
              "type": "address"
            },
            {
              "internalType": "uint256",
              "name": "price",
              "type": "uint256"
            },
            {
              "internalType": "uint256",
              "name": "amount",
              "type": "uint256"
            },
            {
              "internalType": "bool",
              "name": "isSold",
              "type": "bool"
            },
            {
              "internalType": "bool",
              "name": "isPresent",
              "type": "bool"
            }
          ],
          "internalType": "struct IMarketplace.MarketItem[]",
          "name": "items",
          "type": "tuple[]"
        }
      ],
      "stateMutability": "view",
      "type": "function"
    },
    {
      "inputs": [],
      "name": "jpy2Matic",
      "outputs": [
        {
          "internalType": "uint256",
          "name": "",
          "type": "uint256"
        }
      ],
      "stateMutability": "view",
      "type": "function"
    },
    {
      "inputs": [
        {
          "internalType": "address",
          "name": "nftContractAddress",
          "type": "address"
        },
        {
          "internalType": "uint256",
          "name": "tokenId",
          "type": "uint256"
        },
        {
          "internalType": "uint256",
          "name": "price",
          "type": "uint256"
        },
        {
          "internalType": "uint256",
          "name": "amount",
          "type": "uint256"
        }
      ],
      "name": "list",
      "outputs": [],
      "stateMutability": "payable",
      "type": "function"
    },
    {
      "inputs": [],
      "name": "listingFee",
      "outputs": [
        {
          "internalType": "uint256",
          "name": "",
          "type": "uint256"
        }
      ],
      "stateMutability": "view",
      "type": "function"
    },
    {
      "inputs": [
        {
          "internalType": "address",
          "name": "",
          "type": "address"
        },
        {
          "internalType": "address",
          "name": "",
          "type": "address"
        },
        {
          "internalType": "uint256[]",
          "name": "",
          "type": "uint256[]"
        },
        {
          "internalType": "uint256[]",
          "name": "",
          "type": "uint256[]"
        },
        {
          "internalType": "bytes",
          "name": "",
          "type": "bytes"
        }
      ],
      "name": "onERC1155BatchReceived",
      "outputs": [
        {
          "internalType": "bytes4",
          "name": "",
          "type": "bytes4"
        }
      ],
      "stateMutability": "nonpayable",
      "type": "function"
    },
    {
      "inputs": [
        {
          "internalType": "address",
          "name": "",
          "type": "address"
        },
        {
          "internalType": "address",
          "name": "",
          "type": "address"
        },
        {
          "internalType": "uint256",
          "name": "",
          "type": "uint256"
        },
        {
          "internalType": "uint256",
          "name": "",
          "type": "uint256"
        },
        {
          "internalType": "bytes",
          "name": "",
          "type": "bytes"
        }
      ],
      "name": "onERC1155Received",
      "outputs": [
        {
          "internalType": "bytes4",
          "name": "",
          "type": "bytes4"
        }
      ],
      "stateMutability": "nonpayable",
      "type": "function"
    },
    {
      "inputs": [],
      "name": "owner",
      "outputs": [
        {
          "internalType": "address",
          "name": "",
          "type": "address"
        }
      ],
      "stateMutability": "view",
      "type": "function"
    },
    {
      "inputs": [],
      "name": "renounceOwnership",
      "outputs": [],
      "stateMutability": "nonpayable",
      "type": "function"
    },
    {
      "inputs": [
        {
          "internalType": "address",
          "name": "to",
          "type": "address"
        },
        {
          "internalType": "uint256",
          "name": "itemId",
          "type": "uint256"
        },
        {
          "internalType": "uint256",
          "name": "amount",
          "type": "uint256"
        }
      ],
      "name": "send",
      "outputs": [],
      "stateMutability": "nonpayable",
      "type": "function"
    },
    {
      "inputs": [
        {
          "internalType": "bytes4",
          "name": "interfaceId",
          "type": "bytes4"
        }
      ],
      "name": "supportsInterface",
      "outputs": [
        {
          "internalType": "bool",
          "name": "",
          "type": "bool"
        }
      ],
      "stateMutability": "view",
      "type": "function"
    },
    {
      "inputs": [
        {
          "internalType": "address",
          "name": "newOwner",
          "type": "address"
        }
      ],
      "name": "transferOwnership",
      "outputs": [],
      "stateMutability": "nonpayable",
      "type": "function"
    },
    {
      "inputs": [],
      "name": "withdraw",
      "outputs": [],
      "stateMutability": "nonpayable",
      "type": "function"
    },
    {
      "inputs": [
        {
          "internalType": "uint256",
          "name": "itemId",
          "type": "uint256"
        }
      ],
      "name": "withdrawItem",
      "outputs": [],
      "stateMutability": "nonpayable",
      "type": "function"
    },
    {
      "inputs": [],
      "name": "withdrawMarket",
      "outputs": [],
      "stateMutability": "nonpayable",
      "type": "function"
    }
  ],
  "bytecode": "0x6080604052600a600155600a60025534801561001a57600080fd5b5061002433610077565b600380546001600160a01b031990811673d0d5e3db44de05e9f294bb0a3beeaf030de24ada179091556004805490911673d647a6fc9bc6402301583c91decc5989d8bc382d1790556103e86006556100c7565b600080546001600160a01b038381166001600160a01b0319831681178455604051919092169283917f8be0079c531659141344cd1fd0a4f28419497f9722a3daafe3b4186f6b6457e09190a35050565b6122d2806100d66000396000f3fe6080604052600436106100f95760003560e01c8062b58b6a146100fe57806301ffc9a7146101265780633ccfd60b146101565780633ec02e141461016d578063648446ff1461018d578063667a8706146101af57806367df93f2146101c45780636a1b7ecc146101e45780636a1db1bf146101fa578063715018a61461021a5780637231a8761461022f57806377f25f6f1461024f578063898e62191461026f5780638d9a3e931461029c5780638da5cb5b146102bc578063bb74a1c2146102e9578063bc197c81146102fc578063d6febde814610341578063ddca3f4314610354578063f23a6e611461036a578063f2fde38b14610396575b600080fd5b34801561010a57600080fd5b506101136103b6565b6040519081526020015b60405180910390f35b34801561013257600080fd5b506101466101413660046119d1565b6103d5565b604051901515815260200161011d565b34801561016257600080fd5b5061016b61040c565b005b34801561017957600080fd5b506101136101883660046119fb565b610480565b34801561019957600080fd5b506101a26104c6565b60405161011d9190611b05565b3480156101bb57600080fd5b5061016b61070c565b3480156101d057600080fd5b5061016b6101df366004611b83565b610875565b3480156101f057600080fd5b5061011360015481565b34801561020657600080fd5b5061016b610215366004611bb6565b6109ef565b34801561022657600080fd5b5061016b610a5f565b34801561023b57600080fd5b506101a261024a366004611bcf565b610a73565b34801561025b57600080fd5b5061016b61026a366004611bb6565b610d0b565b34801561027b57600080fd5b5061028f61028a366004611bb6565b610d74565b60405161011d9190611bea565b3480156102a857600080fd5b5061016b6102b7366004611bb6565b610edf565b3480156102c857600080fd5b506102d1611053565b6040516001600160a01b03909116815260200161011d565b61016b6102f7366004611bfd565b611062565b34801561030857600080fd5b50610328610317366004611d78565b63bc197c8160e01b95945050505050565b6040516001600160e01b0319909116815260200161011d565b61016b61034f3660046119fb565b6114d4565b34801561036057600080fd5b5061011360025481565b34801561037657600080fd5b50610328610385366004611e21565b63f23a6e6160e01b95945050505050565b3480156103a257600080fd5b5061016b6103b1366004611bcf565b6117c2565b60006103c061183b565b6103d09065426331851200611e9b565b905090565b60006001600160e01b03198216630271189760e51b148061040657506301ffc9a760e01b6001600160e01b03198316145b92915050565b6104146118c0565b61041c611053565b6001600160a01b03166108fc479081150290604051600060405180830381858888f19350505050158015610454573d6000803e3d6000fd5b506040517fd8b7f4bb2039c9b48d880e35ed6f97af88652cdd5070f403bb6eacd26eb6e9dd90600090a1565b60006305f5e10061048f6103b6565b6104998486611ebd565b6104a39190611ebd565b6104b590670de0b6b3a7640000611ebd565b6104bf9190611e9b565b9392505050565b606060006104d360065490565b905060006103e85b8281101561052257600081815260056020526040902060070154610100900460ff1615610510578161050c81611ed4565b9250505b8061051a81611ed4565b9150506104db565b50806001600160401b0381111561053b5761053b611c36565b60405190808252806020026020018201604052801561057457816020015b61056161196f565b8152602001906001900390816105595790505b50925060006103e85b8381101561070557600081815260056020526040902060070154610100900460ff16156106f3576000818152600560209081526040918290208251610120810184528154815260018201546001600160a01b0316928101929092526002810154928201929092526003820180549192916060840191906105fc90611eed565b80601f016020809104026020016040519081016040528092919081815260200182805461062890611eed565b80156106755780601f1061064a57610100808354040283529160200191610675565b820191906000526020600020905b81548152906001019060200180831161065857829003601f168201915b505050918352505060048201546001600160a01b03166020820152600582015460408201526006820154606082015260079091015460ff8082161515608084015261010090910416151560a09091015285518690849081106106d9576106d9611f27565b602002602001018190525081806106ef90611ed4565b9250505b806106fd81611ed4565b91505061057d565b5050505090565b6107146118c0565b471561075c57610722611053565b6001600160a01b03166108fc479081150290604051600060405180830381858888f1935050505015801561075a573d6000803e3d6000fd5b505b600061076760065490565b90506103e85b8181101561084857600081815260056020526040902060060154156108365760008181526005602052604090819020600181015460048083015460028401546006909401549451637921219560e11b81526001600160a01b039384169563f242432a956107e1953095941693909201611f3d565b600060405180830381600087803b1580156107fb57600080fd5b505af115801561080f573d6000803e3d6000fd5b50505060008281526005602052604081206006810191909155600701805461ff0019169055505b8061084081611ed4565b91505061076d565b506040517fffb00d666febdca21227927e52d93bfcf190e962c50ede29fddfd03a1c79827b90600090a150565b61087d6118c0565b6000828152600560205260409020600601548111156108b75760405162461bcd60e51b81526004016108ae90611f81565b60405180910390fd5b6000828152600560205260409081902060018101546002909101549151637921219560e11b81526001600160a01b039091169163f242432a916109039130918891908790600401611f3d565b600060405180830381600087803b15801561091d57600080fd5b505af1158015610931573d6000803e3d6000fd5b50505060008381526005602052604081206006018054849350909190610958908490611fb8565b90915550506000828152600560205260408120600601549003610993576000828152600560205260409020600701805461ffff191660011790555b60008281526005602081815260409283902060048101546002820154919093015484519081529182018590526001600160a01b0387811694931692909160008051602061227d83398151915291015b60405180910390a4505050565b6109f76118c0565b600081118015610a075750600a81105b610a235760405162461bcd60e51b81526004016108ae90611fcb565b60028190556040518181527f779715e3a52a2acfdefc752682585c78a51b6d14241783d6a8c8b296862c6fc5906020015b60405180910390a150565b610a676118c0565b610a71600061191f565b565b60606000610a8060065490565b905060006103e85b82811015610af757600081815260056020526040902060070154610100900460ff168015610ad257506000818152600560205260409020600401546001600160a01b038681169116145b15610ae55781610ae181611ed4565b9250505b80610aef81611ed4565b915050610a88565b50806001600160401b03811115610b1057610b10611c36565b604051908082528060200260200182016040528015610b4957816020015b610b3661196f565b815260200190600190039081610b2e5790505b50925060006103e85b83811015610d0257600081815260056020526040902060070154610100900460ff168015610b9c57506000818152600560205260409020600401546001600160a01b038781169116145b15610cf0576000818152600560209081526040918290208251610120810184528154815260018201546001600160a01b031692810192909252600281015492820192909252600382018054919291606084019190610bf990611eed565b80601f0160208091040260200160405190810160405280929190818152602001828054610c2590611eed565b8015610c725780601f10610c4757610100808354040283529160200191610c72565b820191906000526020600020905b815481529060010190602001808311610c5557829003601f168201915b505050918352505060048201546001600160a01b03166020820152600582015460408201526006820154606082015260079091015460ff8082161515608084015261010090910416151560a0909101528551869084908110610cd657610cd6611f27565b60200260200101819052508180610cec90611ed4565b9250505b80610cfa81611ed4565b915050610b52565b50505050919050565b610d136118c0565b600081118015610d235750600a81105b610d3f5760405162461bcd60e51b81526004016108ae90611fcb565b60018190556040518181527f47110aa6379903a1c93053b7d8b6e8bdbbadd893e457a1e10588c4e2a9575dc790602001610a54565b610d7c61196f565b60008281526005602052604090206007015460ff610100909104161515600114610db85760405162461bcd60e51b81526004016108ae90612017565b6000828152600560209081526040918290208251610120810184528154815260018201546001600160a01b031692810192909252600281015492820192909252600382018054919291606084019190610e1090611eed565b80601f0160208091040260200160405190810160405280929190818152602001828054610e3c90611eed565b8015610e895780601f10610e5e57610100808354040283529160200191610e89565b820191906000526020600020905b815481529060010190602001808311610e6c57829003601f168201915b505050918352505060048201546001600160a01b03166020820152600582015460408201526006820154606082015260079091015460ff8082161515608084015261010090910416151560a09091015292915050565b6000818152600560205260409020600401546001600160a01b03163314610f525760405162461bcd60e51b815260206004820152602160248201527f4d61726b6574706c6163653a204973206e6f74206f776e6572206f66206974656044820152606d60f81b60648201526084016108ae565b600081815260056020526040902060060154610f805760405162461bcd60e51b81526004016108ae90611f81565b60008181526005602052604090819020600181015460048083015460028401546006909401549451637921219560e11b81526001600160a01b039384169563f242432a95610fd5953095941693909201611f3d565b600060405180830381600087803b158015610fef57600080fd5b505af1158015611003573d6000803e3d6000fd5b50505060008281526005602052604080822060068101839055600701805461ff0019169055518392507f98ccc0381cad687edf9ba2239b6d95663b4f4a141c718bfcea5d4ea2e568989c9190a250565b6000546001600160a01b031690565b600082116110c45760405162461bcd60e51b815260206004820152602960248201527f4d61726b6574706c6163653a205072696365206d75737420626520677265617460448201526806572207468616e20360bc1b60648201526084016108ae565b6110cc611053565b6001600160a01b0316336001600160a01b0316146111665760646001546110f38484610480565b6110fd9190611ebd565b6111079190611e9b565b3410156111665760405162461bcd60e51b815260206004820152602760248201527f4d61726b6574706c6163653a204d7573742070617920746865206c697374696e6044820152666720707269636560c81b60648201526084016108ae565b604051637921219560e11b81526001600160a01b0385169063f242432a90611198903390309088908790600401611f3d565b600060405180830381600087803b1580156111b257600080fd5b505af11580156111c6573d6000803e3d6000fd5b5050505060006111d560065490565b905060006103e85b82811015611311576000818152600560205260409020600601541580159061122157506000818152600560205260409020600101546001600160a01b038881169116145b801561123d575060008181526005602052604090206002015486145b801561126257506000818152600560205260409020600401546001600160a01b031633145b801561127f57506000818152600560208190526040909120015485145b156112ff57600081815260056020526040812060060180548692906112a590849061204c565b909155505060008181526005602052604090819020600701805461ffff1916610100179055513390879060008051602061225d833981519152906112ee9085908a908a9061205f565b60405180910390a360019150611311565b8061130981611ed4565b9150506111dd565b50806114cc576040516303a24d0760e21b8152600481018690526000906001600160a01b03881690630e89341c90602401600060405180830381865afa15801561135f573d6000803e3d6000fd5b505050506040513d6000823e601f3d908101601f191682016040526113879190810190612075565b60408051610120810182528581526001600160a01b038a811660208084019182528385018c81526060850187815233608087015260a086018d905260c086018c9052600060e08701819052600161010088018190528c825260059094529690962085518155925191830180546001600160a01b03191692909416919091179092559051600282015591519293509160038201906114249082612136565b5060808201516004820180546001600160a01b0319166001600160a01b0390921691909117905560a0820151600582015560c0820151600682015560e0820151600790910180546101009384015161ffff1990911692151561ff001916929092179115159092021790556040513390879060008051602061225d833981519152906114b49087908a908a9061205f565b60405180910390a36114ca600680546001019055565b505b505050505050565b600082815260056020526040902060070154610100900460ff1661150a5760405162461bcd60e51b81526004016108ae90612017565b60008281526005602052604090206007015460ff16156115765760405162461bcd60e51b815260206004820152602160248201527f4d61726b6574706c6163653a204974656d20697320616c726561647920736f6c6044820152601960fa1b60648201526084016108ae565b6000828152600560205260409020600601548111156115a75760405162461bcd60e51b81526004016108ae90611f81565b6000828152600560208190526040822001546115c39083610480565b9050803410156116255760405162461bcd60e51b815260206004820152602760248201527f4d61726b6574706c6163653a204d757374207061792074686520636f727265636044820152667420707269636560c81b60648201526084016108ae565b6000838152600560205260409020600401546002546001600160a01b03909116906108fc906064906116579082611fb8565b6116619085611ebd565b61166b9190611e9b565b6040518115909202916000818181858888f19350505050158015611693573d6000803e3d6000fd5b506000838152600560205260409081902060018101546002909101549151637921219560e11b81526001600160a01b039091169163f242432a916116e09130913391908890600401611f3d565b600060405180830381600087803b1580156116fa57600080fd5b505af115801561170e573d6000803e3d6000fd5b50505060008481526005602052604081206006018054859350909190611735908490611fb8565b90915550506000838152600560205260408120600601549003611770576000838152600560205260409020600701805461ffff191660011790555b600083815260056020818152604092839020600481015460028201549190930154845190815291820186905233936001600160a01b0390931692909160008051602061227d83398151915291016109e2565b6117ca6118c0565b6001600160a01b03811661182f5760405162461bcd60e51b815260206004820152602660248201527f4f776e61626c653a206e6577206f776e657220697320746865207a65726f206160448201526564647265737360d01b60648201526084016108ae565b6118388161191f565b50565b600080600360009054906101000a90046001600160a01b03166001600160a01b031663feaf968c6040518163ffffffff1660e01b815260040160a060405180830381865afa158015611891573d6000803e3d6000fd5b505050506040513d601f19601f820116820180604052508101906118b5919061220c565b509195945050505050565b336118c9611053565b6001600160a01b031614610a715760405162461bcd60e51b815260206004820181905260248201527f4f776e61626c653a2063616c6c6572206973206e6f7420746865206f776e657260448201526064016108ae565b600080546001600160a01b038381166001600160a01b0319831681178455604051919092169283917f8be0079c531659141344cd1fd0a4f28419497f9722a3daafe3b4186f6b6457e09190a35050565b6040518061012001604052806000815260200160006001600160a01b03168152602001600081526020016060815260200160006001600160a01b0316815260200160008152602001600081526020016000151581526020016000151581525090565b6000602082840312156119e357600080fd5b81356001600160e01b0319811681146104bf57600080fd5b60008060408385031215611a0e57600080fd5b50508035926020909101359150565b60005b83811015611a38578181015183820152602001611a20565b50506000910152565b60008151808452611a59816020860160208601611a1d565b601f01601f19169290920160200192915050565b60006101208251845260018060a01b036020840151166020850152604083015160408501526060830151816060860152611aa982860182611a41565b9150506080830151611ac660808601826001600160a01b03169052565b5060a083015160a085015260c083015160c085015260e0830151611aee60e086018215159052565b506101009283015115159390920192909252919050565b6000602080830181845280855180835260408601915060408160051b870101925083870160005b82811015611b5a57603f19888603018452611b48858351611a6d565b94509285019290850190600101611b2c565b5092979650505050505050565b80356001600160a01b0381168114611b7e57600080fd5b919050565b600080600060608486031215611b9857600080fd5b611ba184611b67565b95602085013595506040909401359392505050565b600060208284031215611bc857600080fd5b5035919050565b600060208284031215611be157600080fd5b6104bf82611b67565b6020815260006104bf6020830184611a6d565b60008060008060808587031215611c1357600080fd5b611c1c85611b67565b966020860135965060408601359560600135945092505050565b634e487b7160e01b600052604160045260246000fd5b604051601f8201601f191681016001600160401b0381118282101715611c7457611c74611c36565b604052919050565b600082601f830112611c8d57600080fd5b813560206001600160401b03821115611ca857611ca8611c36565b8160051b611cb7828201611c4c565b9283528481018201928281019087851115611cd157600080fd5b83870192505b84831015611cf057823582529183019190830190611cd7565b979650505050505050565b60006001600160401b03821115611d1457611d14611c36565b50601f01601f191660200190565b600082601f830112611d3357600080fd5b8135611d46611d4182611cfb565b611c4c565b818152846020838601011115611d5b57600080fd5b816020850160208301376000918101602001919091529392505050565b600080600080600060a08688031215611d9057600080fd5b611d9986611b67565b9450611da760208701611b67565b935060408601356001600160401b0380821115611dc357600080fd5b611dcf89838a01611c7c565b94506060880135915080821115611de557600080fd5b611df189838a01611c7c565b93506080880135915080821115611e0757600080fd5b50611e1488828901611d22565b9150509295509295909350565b600080600080600060a08688031215611e3957600080fd5b611e4286611b67565b9450611e5060208701611b67565b9350604086013592506060860135915060808601356001600160401b03811115611e7957600080fd5b611e1488828901611d22565b634e487b7160e01b600052601160045260246000fd5b600082611eb857634e487b7160e01b600052601260045260246000fd5b500490565b808202811582820484141761040657610406611e85565b600060018201611ee657611ee6611e85565b5060010190565b600181811c90821680611f0157607f821691505b602082108103611f2157634e487b7160e01b600052602260045260246000fd5b50919050565b634e487b7160e01b600052603260045260246000fd5b6001600160a01b0394851681529290931660208301526040820152606081019190915260a0608082018190526003908201526203078360ec1b60c082015260e00190565b6020808252601f908201527f4d61726b6574706c6163653a204974656d206973206e6f7420656e6f75676800604082015260600190565b8181038181111561040657610406611e85565b6020808252602c908201527f4665654d616e616765723a20466565206d757374206265206265747765656e2060408201526b3020616e64206d617846656560a01b606082015260800190565b6020808252818101527f4d61726b6574706c6163653a204974656d206973206e6f742070726573656e74604082015260600190565b8082018082111561040657610406611e85565b9283526020830191909152604082015260600190565b60006020828403121561208757600080fd5b81516001600160401b0381111561209d57600080fd5b8201601f810184136120ae57600080fd5b80516120bc611d4182611cfb565b8181528560208385010111156120d157600080fd5b6120e2826020830160208601611a1d565b95945050505050565b601f82111561213157600081815260208120601f850160051c810160208610156121125750805b601f850160051c820191505b818110156114cc5782815560010161211e565b505050565b81516001600160401b0381111561214f5761214f611c36565b6121638161215d8454611eed565b846120eb565b602080601f83116001811461219857600084156121805750858301515b600019600386901b1c1916600185901b1785556114cc565b600085815260208120601f198616915b828110156121c7578886015182559484019460019091019084016121a8565b50858210156121e55787850151600019600388901b60f8161c191681555b5050505050600190811b01905550565b80516001600160501b0381168114611b7e57600080fd5b600080600080600060a0868803121561222457600080fd5b61222d866121f5565b9450602086015193506040860151925060608601519150612250608087016121f5565b9050929550929590935056fea38b44db63775e3c2fc1a26e9e4b7cae404505a1654d21384d5a4acd7d2cc13bc64c7a18cde66673e7f1108933482694fe68508b5086596a0498ceca0efbbcada264697066735822122023940693c3a4ecdb7f1f40fc786a7fda11ee64e8d7ba0711792a2b4a42e4018564736f6c63430008110033",
  "linkReferences": {},
  "deployedLinkReferences": {}
}